:0400000050EF02F0CB
:100300000048656C6C6F2066726F6D20436F726E73
:10031000656C6C20437570210A0D001B5B324A002E
:100320000000800E6F6E6EB0FED7000E776E738A7F
:100330007398C00E706E800E716E050E726E000E98
:100340000F011A6F000E0F011B6F0F011869E00EED
:100350000F01196F000E0F011E6F000E0F011F6FAE
:100360000F011C69E00E0F011D6F030E0D01D46F0C
:10037000000E0D01D56F000E0F01026F000E0F0170
:10038000036F320E0F01006FC00E0F01016F000EE0
:100390000F010A6F000E0F010B6F330E0F01086F74
:1003A000C00E0F01096F000E6F6E6EB0FED7000E0B
:1003B000606E000E0F01506F1200000E0F01436FB0
:1003C000000E0F01446F550E0F01416F000E0F011B
:1003D000426F320E056EC00E066E0F014097010E81
:1003E0000F01456F550E0F01466FAA0E0F01476FA3
:1003F000020E0F01486F030E0F01496F040E0F012B
:100400004A6F050E0F014B6F060E0F014C6F070E62
:100410000F014D6F0F01408712003CEC02F0898004
:100420001B0E156E030E166E27EC02F00A0E67EC1B
:1004300002F00D0E67EC02F0010E156E030E166E43
:1004400027EC02F0DDEC01F0010E891AFBD7170E44
:10045000176E000E186E03D0195067EC02F015C02D
:10046000F6FF16C0F7FF154A162A0800F5CF19F057
:100470001950D8B41200F0D7D388D38AD38C9B9C60
:10048000000E026E000E016EC180C182C184C18661
:100490009290939493865DEC02F091EC01F012003F
:1004A00000EE01F0130EEE6AE806FDE1000EF86EB4
:1004B000030EF76E00010DEF02F0949CB8960C0E3F
:1004C000AF6EAC9CAC8AAC98AC94AB8E1200146E40
:0A04D00014C0ADFFACB21200FDD75E
:020000040020DA
:08000000FFFFFFFFFFFFFFFF00
:020000040030CA
:0E000000FF08001EFF0085FF0FC00FE00F403D
:00000001FF
